:020000040800F2
:10000000000500200101000873130008A311000877
:1000100071130008290300080B17000800000000F6
:1000200000000000000000000000000013140008A1
:100030002B0300080000000011140008151400082C
:100040001B0100081B0100081B0100081B01000820
:100050001B0100081B0100081B0100081B01000810
:100060001B0100081B0100081B0100081B01000800
:100070001B0100081B0100081B0100081B010008F0
:100080001B0100081B0100081B0100081B010008E0
:100090001B0100081B0100081B0100081B010008D0
:1000A0001B010008B11400081B0100081B01000817
:1000B000BD140008C91400081B0100081B0100083A
:1000C0001B0100081B0100081B0100081B010008A0
:1000D0001B0100081B0100081B0100081B01000890
:1000E0001B0100081B0100081B010008DFF80CD0F1
:1000F00000F008F9004800474D17000800050020EF
:100100000648804706480047FEE7FEE7FEE7FEE7B1
:10011000FEE7FEE7FEE7FEE7FEE7FEE769140008FC
:10012000ED000008D2B201E000F8012B491EFBD21D
:1001300070470022F6E710B513460A4604461946F2
:10014000FFF7F0FF204610BDF0B480EA0102D40FA3
:100150004200B2EB410F02D20246084611464A0065
:1001600042D0C30DDDB2C1F3C752AD1A202D35DA2E
:10017000C1F3160141F4000204B15242C5F1200658
:1001800002FA06F12A411044B3EBD05F23D0C4B188
:10019000012DA0EBC35009DCF0BC4FF0004202EA95
:1001A000C352DBB200F5000000F07EB8400000F161
:1001B000807000EBC350A0F1807040EAD17049001C
:1001C00009E0490841EAC071A0EBC35000F5000006
:1001D000400800EBC350F0BC00F05DB86142012262
:1001E00002EB4101001BF6E7F0BC704781F00041D3
:1001F000AAE780F00040A7E780EA010210B502F00C
:100200000043400022D04A001FD0010E01EB1261D2
:10021000C0F35600C2F3560240F4000042F400025C
:10022000A0FB022000047F39140400D0401C50EAD7
:10023000124001D44000491EC2B20C0604EBD0109B
:10024000401C4008802A02D003E0002010BD20F0AE
:100250000100002900DA0020184310BDC10F80EA18
:10026000E0700844CA079623002100F01DB820F072
:100270000040C10DC0F3160040F400007F2901DAF0
:1002800000207047962903DCC1F19601C8407047F1
:100290009639884070470029A8BF7047401C490024
:1002A00008BF20F00100704710B4B0FA80FC00FADB
:1002B0000CF050EA010404BF10BC704749B1CCF106
:1002C000200421FA04F411FA0CF118BF0121214392
:1002D0000843A3EB0C01CB1D4FEA00614FEA10204D
:1002E00042BF002010BC704700EBC35010440029EF
:1002F000A4BF10BC7047401C490008BF20F001009B
:1003000010BC7047064C074D06E0E06840F0010362
:1003100094E8070098471034AC42F6D3FFF7EAFEA2
:10032000E417000804180008FEE770472DE9F84FAD
:10033000DFF8B891002409F1040A0AF1040B2346FE
:100340000F270BF1040EC9E00125A5402A40AA425F
:100350007DD1674ED1F804C0ACEB0608B44532D06D
:1003600014DCBCF1030F3AD009DCBCF1000F2AD039
:10037000BCF1010F1CD0BCF1020F31D11DE0BCF16A
:10038000110F17D0BCF1120F2AD119E0B8F5881F50
:1003900019D006DCB8F5803F15D0B8F5801F1FD105
:1003A00011E0B8F5001F0ED0B8F5041F18D10AE00F
:1003B000CB6815E0CB681B1D12E0CB6808330FE05B
:1003C000CB680C330CE08B682BB1012B4FF008038A
:1003D00003D0456104E0042302E0056100E000234E
:1003E000FF2A01D8064601E000F104064FEA840521
:1003F00001D9A5F12005D6F8008007FA05FC28EA06
:100400000C0803FA05F548EA0508C6F800804D68AF
:10041000ED0062D5374DAE6946F00106AE61AD69BB
:1004200024F0030605F001050095334D06EB050C9D
:10043000DCF80850A607360F07FA06F825EA080583
:10044000DFF8B880404503D14FF0000817E044E0E2
:10045000DFF8AC80404502D14FF001080FE0DFF833
:10046000A480404502D14FF0020808E0DFF89880F0
:10047000404502D14FF0030801E04FF0040808FAAC
:1004800006F848EA0508CCF808804D68D9F80060FD
:10049000ED034D4601D5164300E096432E604D68AE
:1004A000DAF80060AD03554601D5164300E09643E7
:1004B0002E604D68DBF80060ED025D4601D5164305
:1004C00000E096432E604D68DEF80060AD02754690
:1004D00001D5164300E096432E60641C0D682A4641
:1004E000E5407FF431AFBDE8F88F00000004014023
:1004F00000001110001002400000014000080140FF
:10050000000C014000100140001401400AB10161DB
:1005100070470904FBE7000001488068704700004D
:100520002C000020024881680278114481607047E5
:100530002C000020074810B5016841F0100101604F
:10054000032000F075F8002000F006F800F024F811
:10055000002010BD0020024070B50D4D04464FF440
:100560007A712878B1FBF0F00A490968B1FBF0F024
:1005700000F0CCFA48B9102C07D200222146501EB8
:1005800000F036F800206C6070BD012070BD0000E6
:100590002C000020380000200C4808B5816941F08B
:1005A00001018161816901F001010091C16941F09E
:1005B0008051C161C06900F08050009004484168DA
:1005C00021F0E06141F00071416008BD001002407F
:1005D00000000140002809DB00F01F0201219140CA
:1005E0004009800000F1E020C0F8001170470000D1
:1005F000F0B40E4B1B680C46C3F30223C3F107058E
:10060000042D00D90425191D072901D2002300E07B
:10061000DB1E012606FA05F1491E214099409E4045
:10062000761E16403143F0BC01F070B80CED00E0CE
:10063000064900F0070208684FF6FF03184040EA39
:100640000220034A10430860704700000CED00E0F0
:100650000000FA052DE9F0470F46050061D0434E32
:10066000306800F00700B84209D2306820F0070077
:1006700038433060306800F00700B84251D1286834
:100680003B4C810712D5400703D5606840F4E06019
:1006900060602878000703D5606840F460506060AF
:1006A0006068A96820F0F000084360602878C007FF
:1006B00028D06868012810D02168022810D0890746
:1006C00000292EDA616821F0030101436160FFF720
:1006D00023FF804641F288390DE021688903EFE766
:1006E0008901EDE7FFF718FFA0EB0801494502D9A2
:1006F0000320BDE8F0876068696800F00C00B0EB8B
:10070000810FEFD1306800F00700B8420BD9306894
:1007100020F0070038433060306800F00700B8422E
:1007200001D00120E5E72878400705D56068E96831
:1007300020F4E060084360602878000706D5606810
:10074000296920F4605040EAC100606000F018F8A8
:100750006168084AC1F30311515CC840064908604A
:1007600006480068FFF7F8FE0020C2E700200240BC
:1007700000100240D417000838000020300000208C
:1007800012A185B00FC98DE80F0014A0144A0068AB
:1007900004905168134801F00C03042B10D0082B6F
:1007A0000ED1C1F38343C9031DF803000AD5516874
:1007B00004AAC1F34041515C0A4A5043B0FBF1F036
:1007C00005B0704708494843FAE7000002030405F2
:1007D000060708090A0B0C0D0E0F1010010200008D
:1007E0000010024000127A0000093D002DE9F84F88
:1007F000040070D02078C04DC00749D06868C0F3AD
:100800008100012807D06868C0F38100022809D15F
:100810006868C00306D52868800339D56068002859
:10082000E7D035E06068B0F5803F0BD010B1B0F58F
:10083000A02F11D0286820F480302860286820F488
:10084000802002E0286840F480302860606890B121
:10085000FFF762FE06460AE0286840F48020286020
:10086000F0E700BFFFF758FE801B642873D82868A4
:100870008003F7D50CE0FFF74FFE064605E000BF0A
:10088000FFF74AFE801B6428F0D828688003F7D45D
:1008900020789A4E80074FF001094FF0000839D5B3
:1008A000686810F00C0F07D06868C0F38100022858
:1008B00009D16868C00306D42868800714D5206968
:1008C000012808D110E02069B0B1C6F80090FFF708
:1008D00023FE074605E00AE1FFF71EFEC01B0228C3
:1008E000C4D828688007F7D52868616920F0F80027
:1008F00040EAC10028600DE0C6F80080FFF70CFE5A
:10090000074604E0FFF708FEC01B022823D828682A
:100910008007F7D4207800072CD57948A169D9B190
:10092000C0F80090FFF7F8FD074604E0FFF7F4FD7C
:10093000C01B02280FD8686A8007F7D571484FF4AA
:10094000FA510068B0FBF1F0009000BF0098411E22
:100950000091FAD20EE080E0C0F80080FFF7DCFDE5
:10096000074604E0FFF7D8FDC01B022875D8686A67
:100970008007F7D42078400760D5E8690027C000D9
:1009800008D4E86940F08050E861E869012700F088
:10099000805000905C480168C90513D40168834603
:1009A00041F480710160FFF7B7FD824606E000BFA9
:1009B000FFF7B2FDA0EB0A0064284ED8DBF8000078
:1009C000C005F5D5E06801280AD008B1052813D084
:1009D000286A20F001002862286A20F0040002E062
:1009E000286A40F001002862E06841F2883B98B133
:1009F000FFF792FD82460BE0286A40F0040028626F
:100A0000EEE700BFFFF788FDA0EB0A0159455AD871
:100A1000286A8007F6D50CE0FFF77EFD824605E0E8
:100A2000FFF77AFDA0EB0A0159454CD8286A8007E8
:100A3000F6D41FB1E86920F08050E861E06988B31E
:100A40006968C1F38101022944D00228C6F8608098
:100A500004D0FFF761FD044638E034E0FFF75CFDA9
:100A6000074604E0FFF758FDC01B02282BD8286872
:100A70008001F7D4206AB0F5803F05D16868A1688D
:100A800020F4003008436860D4E90801084369682D
:100A900021F4741108436860C6F86090FFF73CFDCC
:100AA000044606E025E000BFFFF736FD001B0228E4
:100AB00009D828688001F7D51BE000BFFFF72CFD9F
:100AC000001B022802D90320BDE8F88F28688001A6
:100AD000F4D40EE00128F7D06868226A00F480316F
:100AE000914204D1616A00F47010884201D0012063
:100AF000EAE70020E8E70000001002400000424260
:100B000080044242380000200070004010B5401EB2
:100B1000B0F1807F01D3012010BD4FF0E02460616F
:100B20000F21601700F0F2FD0020A0610720206176
:100B3000002010BD7047704710B590F83C20012A86
:100B400022D0012280F83C20CA688C6822F44072CE
:100B500022434C6822F4806222430C6822F4006233
:100B600022430C6922F4805222434C6922F4005241
:100B70002243C969002322F480420A4301684A647F
:100B800080F83C30002010BD022010BD70B590F8F8
:100B90003C20012A19D0012400F83C4F0222427067
:100BA00050F83C3C5A689D6822F070060A68496813
:100BB000324325F0800529435A6050F83C2C91605F
:100BC000447000210170084670BD022070BD10B550
:100BD000040003D094F83D0010B107E0012010BDDF
:100BE000002084F83C00204600F00CF8022084F835
:100BF0003D00211D206800F06DFC012084F83D00BF
:100C0000002010BD08B500680B49884212D10B487E
:100C1000816941F4006181618069002200F4006013
:100C2000009011461920FFF7E3FCBDE808401920A9
:100C3000FFF7D0BC08BD0000002C014000100240AE
:100C400070B5044690F83C00012817D0012584F8BF
:100C50003C50022084F83D002068826822F0770230
:100C600022F47F4282600868502830D00DDC2028B2
:100C70004DD005DC98B310283BD148E0022070BD70
:100C8000302844D0402834D139E0602828D070285A
:100C900006D0B0F5805F2CD0B0F5005F29D10AE016
:100CA000CB68D1E90121206800F057FC20688168F9
:100CB00041F0770109E0CB68D1E90121206800F01B
:100CC0004CFC2068816841F48041816011E0CA6871
:100CD0004968206800F0F6FC5021206807E016E023
:100CE000CA684968206800F0FEFC6021206800F0B6
:100CF0003EFC84F83D50002084F83C0070BDCA687A
:100D00004968206800F0DEFC40212068EFE7226897
:100D100001461046EBE72DE9F0410D46040003D0F3
:100D200094F83D0018B108E00120BDE8F0810020F2
:100D300084F83C00204600F03BF8022084F83D0097
:100D40002068816844F2070291438160211D206878
:100D500000F0C0FB226890689169166A2B68AF6941
:100D6000034340F20330814341EA0721A868EF6959
:100D700008434FF6FC418843E96840EA07200143F5
:100D800028692F6A000140EA0730084369686D69E5
:100D900026F0220646EA05152943936022689061F1
:100DA00020680162012084F83D000020BDE70000BA
:100DB00000B585B000210091019102910391006876
:100DC000B0F1804F1ED11048C16941F00101C161ED
:100DD000C16901F001010491816941F0040181615F
:100DE0008069694600F004000490032000900748E1
:100DF000FFF79CFA002211461C20FFF7F9FB1C208C
:100E0000FFF7E8FB05B000BD0010024000080140FC
:100E100010B50446006891B1042904D001220021D4
:100E200000F08EFB206801225FF0040100F088FBD7
:100E30002068016841F001010160002010BD01221D
:100E40000021F3E7704770B50446006801694FF070
:100E50000005C943890715D4C168C943890711D45E
:100E6000E91E016101202077206880698007204603
:100E700002D0FFF7E7FF04E000F0BEF8204600F0E4
:100E80005DF9257720680169C943490717D4C1680E
:100E9000C943490713D46FF0040101610220207790
:100EA0002068806910F4407F204602D0FFF7CAFF17
:100EB00004E000F0A1F8204600F040F92577206812
:100EC0000169C943090716D4C168C943090712D487
:100ED0006FF008010161042020772068C069800755
:100EE000204602D0FFF7AEFF04E000F085F8204670
:100EF00000F024F9257720680169C943C90617D491
:100F0000C168C943C90613D46FF0100101610820FC
:100F100020772068C06910F4407F204602D0FFF798
:100F200091FF04E000F068F8204600F007F925770B
:100F300020680169C943C90708D1C168C943C90705
:100F400004D1891E0161204600F016F9206801696C
:100F5000C943090609D4C168C943090605D46FF01D
:100F6000800101612046FFF7E5FD20680169C94362
:100F7000490609D4C168C943490605D46FF0400148
:100F80000161204600F00CF920680169C943890617
:100F90000BD4C168C943890607D46FF020010161F1
:100FA0002046BDE87040FFF7C6BD70BD00B585B0F6
:100FB0000021009101910291039100680B49884240
:100FC00012D10B48816941F0040181618069694651
:100FD00000F0040004904FF4007000900220019093
:100FE00003900448FFF7A2F905B000BD002C0140B2
:100FF0000010024000080140704770B5044690F8A8
:101000003C000D4601280DD0012684F83C600220EA
:1010100084F83D0042B1042A18D0082A2AD00C2AAC
:101020004DD139E0022070BD206800F0A9FA206897
:10103000816941F0080181612068816921F0040122
:101040008161206881692A69114311E0206800F0FC
:10105000BFFA2068816941F400618161206881697B
:1010600021F480618161206881692A6941EA022155
:10107000816124E0206800F0D7FA2068C16941F05E
:101080000801C1612068C16921F00401C1612068C3
:10109000C1692A69114311E0206800F0F1FA206863
:1010A000C16941F40061C1612068C16921F48061B6
:1010B000C1612068C1692A6941EA0221C16184F8DD
:1010C0003D60002084F83C0070BD10B5040003D0E2
:1010D00094F83D0010B107E0012010BD002084F815
:1010E0003C00204600F00CF8022084F83D00211D51
:1010F000206800F0EFF9012084F83D00002010BDC9
:1011000008B500680B49884212D10B48C16941F00B
:101110000201C161C069002200F002000090114686
:101120001D20FFF765FABDE808401D20FFF752BA01
:1011300008BD00000004004000100240704700009D
:1011400010B504460068012200F0FAF90949206848
:10115000884203D1416C41F40041416420688168B8
:1011600001F00701062903D0016841F00101016087
:10117000002010BD002C014010B50446006806494F
:10118000884201D100F0F6F82068B0F1804F02D11A
:1011900002490120087010BD002C01400000002011
:1011A0007047FEE730B585B00024174800940194DD
:1011B00002940394816941F020018161816901F009
:1011C00020010491816941F00401816180690F4D22
:1011D00000F004000122049091022846FFF796F9DE
:1011E0000022E9142846FFF791F94FF4406000907F
:1011F0000120CDE901040220039069462846FFF74B
:1012000095F805B030BD0000001002400008014014
:1012100010B596B000240F94109411941294139466
:101220001C2108A81494FEF784FF20216846FEF7CD
:1012300080FF20481E4901600221C0E901144BF6DD
:101240007F31C0E903148021C0E90541FFF7BFFCED
:101250004FF480500F900FA91648FFF7F1FC154886
:10126000FFF733FF139413A912481494FFF78EFC71
:101270006020CDE908040A940B940C940D94042288
:1012800008A90C480E94FFF7B8FE00944FF40050E4
:10129000CDE90440029401940394694605480794FB
:1012A000FFF74AFC0348FFF781FE16B010BD0000AF
:1012B000002C01403C00002010B58CB02421684671
:1012C000FEF737FF0024134809944FF080410A9439
:1012D000C0E900144FF6FF71C0E9024180210461AA
:1012E00081610320CDE900040120CDE902040F2132
:1012F0000491CDE90540CDE9074169460548FFF76E
:101300000AFD099409A903480A94FFF73FFC0CB0B1
:1013100010BD00007C00002010B58AB000240794A6
:101320001C2168460894FEF704FF10480E4901602E
:101330004721C0E9011442F20F71C0E9031484612E
:10134000FFF7C3FE079407A908480894FFF71EFC9F
:101350006020CDE900040294002269460348049409
:10136000FFF74BFE0AB010BD00040040BC00002097
:10137000FEE770472DE9F0414FF08040406A204C75
:1013800085B265802078A188C0EB00402844401ACF
:10139000FEF764FF6062A580002701462770A06AFF
:1013A000FEF724FF064620623146A069FEF7CCFE18
:1013B0000546A0613146A068FEF71EFF0646606143
:1013C0002946E068FEF718FF0E492061884200DDDB
:1013D000216131462069FEF7B7FEE06110F1FF4F51
:1013E00001D3E76103E00849884200DDE161E0697B
:1013F000FEF73DFF054909688863BDE8F0810000FC
:10140000000000200080BB4600803B473C000020DD
:1014100070477047FFF786B830B58FB0282168460F
:10142000FEF787FE14210AA8FEF783FE01210804B7
:10143000CDE900100024029402250491CDE9075063
:101440004FF4E01009906846FFF7D0F90F20CDE97E
:101450000A056802CDE90C4002210AA80E94FFF7A4
:10146000F9F80FB030BD00000D48016841F00101EE
:10147000016041680B4A1140416001680A4A11400D
:101480000160016821F480210160416821F4FE01BE
:1014900041604FF41F0181600449C0030860704738
:1014A000001002400000FFF8FFFFF6FE08ED00E02C
:1014B0000148FFF7C8BC00003C0000200148FFF7CE
:1014C000C2BC00007C0000200148FFF7BCBC00004B
:1014D000BC000020F0B50268164B174C174D4FF0BA
:1014E0008047984205D0B84203D0A04201D0A8421C
:1014F00003D122F070064A683243984205D0B842C0
:1015000003D0A04201D0A84203D122F44074CA689B
:1015100022434C6922F08002224302608A68C26240
:101520000A688262984201D109690163012141611F
:10153000F0BD0000002C0140000400400008004005
:1015400010B501F01F030121046A99408C43046225
:10155000016A9A401143016210BD10B5846842EAE5
:10156000032224F47F440A432243826010BD826830
:1015700022F070020A4342F00701816070470000C8
:1015800030B5026A22F001020262026A436884698D
:1015900024F073050C682C4322F002058A682A4364
:1015A0000A4DA8420BD122F00805CA6823F4407303
:1015B0002A434D6922F004021D438B692B4343608B
:1015C000846149684163026230BD0000002C014023
:1015D00030B5026A22F010020262026A436884692E
:1015E0000D6824F4E64444EA05248D6822F02002C4
:1015F00042EA05120B4DA8420ED1CD6822F08002BE
:1016000042EA05124D6923F4406343EA85038D697C
:1016100022F0400243EA85034360846149688163A4
:10162000026230BD002C014030B5026A22F48072A3
:101630000262036A4268C46923F4007324F07305EC
:101640000C682C438D6843EA05230C4DA8420ED14B
:10165000CD6823F4006343EA05234D6922F4405228
:1016600042EA05128D6923F4806342EA0512426062
:10167000C4614968C163036230BD0000002C0140B1
:1016800030B5026A22F480520262046A4268C36979
:101690000D6823F4E64343EA05238D6824F40054DF
:1016A00044EA0534064DA84204D14D6922F4804233
:1016B00042EA85124260C36149680164046230BD38
:1016C000002C014010B5036A046A24F0010404628E
:1016D000846924F0F00444EA021423F00A020A4365
:1016E0008461026210BD10B5036A23F01003036227
:1016F0008369046A23F4704343EA023224F0A003AE
:1017000043EA01118261016210BDFEE70907090E7B
:10171000002804DB00F1E02080F80014704700F09E
:101720000F0000F1E02080F8141D704702E008C8A7
:10173000121F08C1002AFAD170477047002001E04B
:1017400001C1121F002AFBD170470000FEF7F2FE14
:10175000FFF762FEFFF726FDFFF75AFDFFF7ACFD2E
:10176000FFF7DAFD194C012291022046FEF7CEFE6A
:101770000022E1142046FEF7C9FE15486FF0010271
:1017800001680A6100F140010B681A610068C268D3
:1017900042F00102C2600868C16841F00101C16005
:1017A0000B4880300068C16841F00101C16004212C
:1017B0000748FFF7C5FC064800214030FFF728FB2B
:1017C000034804214030FFF723FBFEE700080140F7
:1017D0003C000020000000000000000001020304A3
:1017E0000607080904180008000000203C0000005B
:1017F0002C170008401800083C000020C40400001A
:101800003C170008000000000000000000401C46DB
:101810000000003F00000000000000000000000089
:101820000000000000000000000000000000B041C7
:101830000100000010000000000000000024F4007F
:04000005080000ED02
:00000001FF
